{
    "abi": [
        {
            "type": "constructor",
            "inputs": [
                {
                    "name": "_vaultImplementation",
                    "type": "address",
                    "internalType": "address"
                }
            ],
            "stateMutability": "nonpayable"
        },
        {
            "type": "function",
            "name": "chainIdToVault",
            "inputs": [
                {
                    "name": "",
                    "type": "uint256",
                    "internalType": "uint256"
                }
            ],
            "outputs": [
                {
                    "name": "",
                    "type": "address",
                    "internalType": "address"
                }
            ],
            "stateMutability": "view"
        },
        {
            "type": "function",
            "name": "createVault",
            "inputs": [
                {
                    "name": "chainId",
                    "type": "uint256",
                    "internalType": "uint256"
                }
            ],
            "outputs": [
                {
                    "name": "vault",
                    "type": "address",
                    "internalType": "address"
                }
            ],
            "stateMutability": "nonpayable"
        },
        {
            "type": "function",
            "name": "getVaultAddresses",
            "inputs": [
                {
                    "name": "user",
                    "type": "address",
                    "internalType": "address"
                }
            ],
            "outputs": [
                {
                    "name": "predicted",
                    "type": "address",
                    "internalType": "address"
                }
            ],
            "stateMutability": "nonpayable"
        },
        {
            "type": "function",
            "name": "userToVaults",
            "inputs": [
                {
                    "name": "",
                    "type": "address",
                    "internalType": "address"
                },
                {
                    "name": "",
                    "type": "uint256",
                    "internalType": "uint256"
                }
            ],
            "outputs": [
                {
                    "name": "vaultAddress",
                    "type": "address",
                    "internalType": "address"
                },
                {
                    "name": "chainId",
                    "type": "uint256",
                    "internalType": "uint256"
                }
            ],
            "stateMutability": "view"
        },
        {
            "type": "function",
            "name": "vaultImplementation",
            "inputs": [],
            "outputs": [
                {
                    "name": "",
                    "type": "address",
                    "internalType": "address"
                }
            ],
            "stateMutability": "view"
        },
        {
            "type": "event",
            "name": "vaultCreated",
            "inputs": [
                {
                    "name": "user",
                    "type": "address",
                    "indexed": true,
                    "internalType": "address"
                },
                {
                    "name": "vaultAddress",
                    "type": "address",
                    "indexed": false,
                    "internalType": "address"
                },
                {
                    "name": "chainId",
                    "type": "uint256",
                    "indexed": false,
                    "internalType": "uint256"
                }
            ],
            "anonymous": false
        },
        {
            "type": "error",
            "name": "FailedDeployment",
            "inputs": []
        },
        {
            "type": "error",
            "name": "InsufficientBalance",
            "inputs": [
                {
                    "name": "balance",
                    "type": "uint256",
                    "internalType": "uint256"
                },
                {
                    "name": "needed",
                    "type": "uint256",
                    "internalType": "uint256"
                }
            ]
        }
    ],
    "bytecode": {
        "object": "0x60a060405234801561000f575f80fd5b5060405161065f38038061065f83398101604081905261002e9161010e565b6001600160a01b03166080525f60208190527fada5013122d395ba3c54772283fb069b10426056ef8ca54750cb9bb552a59e7d80546001600160a01b031990811673a0b86991c6218b36c1d19d4a2e9eb0ce3606eb48179091557f8839e33ea8bc27e2dca8c9b90c78bcf651bd5273f6d53154cb494f42572e41d880548216732791bca1f25db3af4ed8f9ef7ba6c0cbf4be8fd617905561a4b19091527faf53aac3c4613282336edb809001bb3c8f8a5f4f8bef81faa04ce7c3b152209c805490911673ff970a61a04b1ca14834a43f5de4533ebddb5cc817905561013b565b5f6020828403121561011e575f80fd5b81516001600160a01b0381168114610134575f80fd5b9392505050565b6080516104ff6101605f395f818160a10152818161019e01526102be01526104ff5ff3fe608060405234801561000f575f80fd5b5060043610610055575f3560e01c8063695ee8de146100595780639abbdf4b14610089578063bba48a901461009c578063bdf9a08d146100c3578063e61a87571461011c575b5f80fd5b61006c610067366004610471565b610144565b6040516001600160a01b0390911681526020015b60405180910390f35b61006c61009736600461048a565b61020e565b61006c7f000000000000000000000000000000000000000000000000000000000000000081565b6100fd6100d13660046104a1565b600160208181525f9384526040808520909152918352912080549101546001600160a01b039091169082565b604080516001600160a01b039093168352602083019190915201610080565b61006c61012a36600461048a565b5f602081905290815260409020546001600160a01b031681565b6040516bffffffffffffffffffffffff19606083901b1660208201525f90819060340160408051808303601f190181529082905280516020909101203060388301526f5af43d82803e903d91602b57fd5bf3ff60248301527f00000000000000000000000000000000000000000000000000000000000000006001600160a01b039081166014840152733d602d80600a3d3981f3363d3d373d3d3d363d738352605883018290526037600c84012060788401526055604390930192909220909250165b9392505050565b335f9081526001602090815260408083208484529091528120546001600160a01b0316156102775760405162461bcd60e51b81526020600482015260126024820152711d5cd95c88185b1c9958591e48195e1a5cdd60721b604482015260640160405180910390fd5b6040516bffffffffffffffffffffffff193360601b1660208201525f9060340160408051601f19818403018152919052805160209091012090506102e46001600160a01b037f000000000000000000000000000000000000000000000000000000000000000016826103e4565b5f848152602081905260409081902054905163ef88bf1360e01b81523360048201526001600160a01b03918216602482015291935083169063ef88bf13906044015f604051808303815f87803b15801561033c575f80fd5b505af115801561034e573d5f803e3d5ffd5b50506040805180820182526001600160a01b0386811680835260208084018a8152335f81815260018085528882208e8352855290889020965187546001600160a01b031916961695909517865590519490930193909355835190815291820188905293507f68e092b6279fb2d0cbbb1b9c4c95346e095948ac67e389fde1605e293d860ae892500160405180910390a250919050565b5f61020783838380763d602d80600a3d3981f3363d3d373d3d3d363d730000008460601b60e81c175f526e5af43d82803e903d91602b57fd5bf38460781b17602052826037600984f590506001600160a01b0381166102075760405163b06ebf3d60e01b815260040160405180910390fd5b80356001600160a01b038116811461046c575f80fd5b919050565b5f60208284031215610481575f80fd5b61020782610456565b5f6020828403121561049a575f80fd5b5035919050565b5f80604083850312156104b2575f80fd5b6104bb83610456565b94602093909301359350505056fea2646970667358221220187df3cbb0b3d23e5478021b976195cf15b4de9943346b2d9856faf1aaf63ddf64736f6c63430008140033",
        "linkReferences": {}
    },
    "methodIdentifiers": {
        "chainIdToVault(uint256)": "e61a8757",
        "createVault(uint256)": "9abbdf4b",
        "getVaultAddresses(address)": "695ee8de",
        "userToVaults(address,uint256)": "bdf9a08d",
        "vaultImplementation()": "bba48a90"
    },
    "id": 20
}