{"abi":[{"type":"function","name":"deposit","inputs":[{"name":"_amt","type":"uint256","internalType":"uint256"}],"outputs":[],"stateMutability":"nonpayable"},{"type":"function","name":"getBalance","inputs":[],"outputs":[{"name":"balance","type":"uint256","internalType":"uint256"}],"stateMutability":"nonpayable"},{"type":"function","name":"initialise","inputs":[{"name":"_user","type":"address","internalType":"address"},{"name":"_usdc","type":"address","internalType":"address"}],"outputs":[],"stateMutability":"nonpayable"},{"type":"function","name":"owner","inputs":[],"outputs":[{"name":"","type":"address","internalType":"address"}],"stateMutability":"view"},{"type":"function","name":"usdc","inputs":[],"outputs":[{"name":"","type":"address","internalType":"contract IERC20"}],"stateMutability":"view"},{"type":"function","name":"withdraw","inputs":[{"name":"_amt","type":"uint256","internalType":"uint256"}],"outputs":[],"stateMutability":"nonpayable"}],"bytecode":{"object":"0x608060405234801561000f575f80fd5b506104fd8061001d5f395ff3fe608060405234801561000f575f80fd5b5060043610610060575f3560e01c806312065fe0146100645780632e1a7d4d1461007f5780633e413bee146100945780638da5cb5b146100bf578063b6b55f25146100d1578063ef88bf13146100e4575b5f80fd5b61006c6100f7565b6040519081526020015b60405180910390f35b61009261008d3660046103ff565b610199565b005b6001546100a7906001600160a01b031681565b6040516001600160a01b039091168152602001610076565b5f546100a7906001600160a01b031681565b6100926100df3660046103ff565b6102c5565b6100926100f2366004610431565b61037a565b5f80546001600160a01b0316331461012a5760405162461bcd60e51b815260040161012190610462565b60405180910390fd5b6001546040516370a0823160e01b81523060048201526001600160a01b03909116906370a0823190602401602060405180830381865afa158015610170573d5f803e3d5ffd5b505050506040513d601f19601f82011682018060405250810190610194919061048a565b905090565b5f546001600160a01b031633146101c25760405162461bcd60e51b815260040161012190610462565b5f81116102115760405162461bcd60e51b815260206004820181905260248201527f416d6f756e74206d7573742062652067726561746572207468616e205a65726f6044820152606401610121565b60015460405163a9059cbb60e01b8152336004820152602481018390526001600160a01b039091169063a9059cbb906044015b6020604051808303815f875af1158015610260573d5f803e3d5ffd5b505050506040513d601f19601f8201168201806040525081019061028491906104a1565b6102c25760405162461bcd60e51b815260206004820152600f60248201526e151c985b9cd9995c8811985a5b1959608a1b6044820152606401610121565b50565b5f546001600160a01b031633146102ee5760405162461bcd60e51b815260040161012190610462565b5f811161033d5760405162461bcd60e51b815260206004820181905260248201527f416d6f756e74206d7573742062652067726561746572207468616e205a65726f6044820152606401610121565b6001546040516323b872dd60e01b8152336004820152306024820152604481018390526001600160a01b03909116906323b872dd90606401610244565b5f546001600160a01b0316156103d25760405162461bcd60e51b815260206004820152601960248201527f5661756c7420616c726561647920696e697469616c69736564000000000000006044820152606401610121565b5f80546001600160a01b039384166001600160a01b03199182161790915560018054929093169116179055565b5f6020828403121561040f575f80fd5b5035919050565b80356001600160a01b038116811461042c575f80fd5b919050565b5f8060408385031215610442575f80fd5b61044b83610416565b915061045960208401610416565b90509250929050565b6020808252600e908201526d139bdd08105d5d1a1bdc9a5e995960921b604082015260600190565b5f6020828403121561049a575f80fd5b5051919050565b5f602082840312156104b1575f80fd5b815180151581146104c0575f80fd5b939250505056fea26469706673582212205a6774100af9c5bd37346bdbc15084382ebf979f973dd056d1286025eb1648c764736f6c63430008140033","linkReferences":{}},"methodIdentifiers":{"deposit(uint256)":"b6b55f25","getBalance()":"12065fe0","initialise(address,address)":"ef88bf13","owner()":"8da5cb5b","usdc()":"3e413bee","withdraw(uint256)":"2e1a7d4d"},"id":21}